:100000000C9463000C948B000C948B000C948B006C
:100010000C948B000C948B000C948B000C948B0034
:100020000C948B000C948B000C948B000C948B0024
:100030000C948B000C948B000C948B000C948B0014
:100040000C9489040C948B000C9474020C948B0017
:100050000C948B000C948B000C948B000C948B00F4
:100060000C948B000C948B000000000024002700EF
:100070002A0000000000250028002B0000000000DE
:1000800023002600290004040404040404040202DA
:100090000202020203030303030301020408102007
:1000A0004080010204081020010204081020000012
:1000B0000007000201000003040600000000000029
:1000C00000009E012D0311241FBECFEFD4E0DEBF40
:1000D000CDBF11E0A0E0B1E0E0E3FDE002C005909B
:1000E0000D92AC31B107D9F711E0ACE1B1E001C03C
:1000F0001D92A23DB107E1F710E0C6ECD0E004C0CC
:100100002297FE010E949206C23CD107C9F70E94C5
:100110006D020C9496060C9400000F931F938C01B3
:10012000FC0145835683678370870E94D104F801E0
:1001300061837283838394831F910F910895EF925B
:10014000FF920F931F93CF93DF93EC010E94D10492
:10015000E980FA800B811C812D813E814F81588579
:100160006E197F09800B910B62177307840795073F
:1001700010F480E018C0211531054105510519F032
:100180008881882339F00E94D10469837A838B8324
:100190009C8308C02E0D3F1D401F511F29833A83A9
:1001A0004B835C8381E0DF91CF911F910F91FF9092
:1001B000EF90089508950F931F938C01862FF801F7
:1001C00062837383518340833583248361E00E947B
:1001D0005105F801808161E00E945105F801848198
:1001E00061E00E9451051F910F910895DF92EF92F7
:1001F000FF920F931F93CF93DF93EC01162FDD2413
:10020000EE24FF24888161E00E947105DD0C8C8161
:1002100060E00E9451058C8161E00E9471058C8133
:100220000E94BE05019711F481E0D82A8C8160E01C
:100230000E9471058C8161E00E945105012F10E040
:1002400000FF03C08C8161E002C08C8160E00E94ED
:100250007105888160E00E9471058C8160E00E94D8
:1002600071050894E11CF11C88E0E816F10421F006
:1002700015950795102FC6CF8D2DDF91CF911F912A
:100280000F91FF90EF90DF900895EF92FF920F9300
:100290001F93CF93DF937C01FC01828160E00E9479
:1002A0007105C70165E50E94F600C7016FEF0E9466
:1002B000F600C7016FEF0E94F600182F00E0C7019B
:1002C0006FEF0E94F600B801680F711DCB018370BB
:1002D00090708230910561F464FD03C0CFEFDFEFD1
:1002E00002C0CEEFDFEF65FF1CC0CDEFDFEF19C01E
:1002F000019719F0CFEFDFEF14C0769567957695EB
:10030000679580E090E020E13EE040E050E00E9410
:100310000D062EE095958795779567952A95D1F7E7
:10032000EB01F701828161E00E947105CE01DF914E
:10033000CF911F910F91FF90EF9008958EE191E082
:1003400048E250E060E070E00E948D0087E291E0BA
:100350000E94DA000895EF92FF920F931F939C0181
:1003600081E02836380714F027E631E087E691E08F
:10037000821B930B25E530E0829FB001839F700DB7
:10038000929F700D1124882777FD8095982F24E681
:1003900030E040E050E00E94610679018A018CE083
:1003A00061E00E9471058CED95E0A0E0B0E0E80E00
:1003B000F91E0A1F1B1FC7010E9409058CE060E09F
:1003C0000E9471056AE070E080E090E00E94DF0426
:1003D0001F910F91FF90EF9008958EE191E00E94A0
:1003E0009F00813041F487E291E00E9445019093A3
:1003F0001D0180931C0163E070E080E090E00E94AA
:10040000DF0480911C0190911D016AE070E00E9460
:100410002C06CB0170932E0160932D0120912F01AA
:10042000309130012617370734F42F5F3F4F309358
:10043000300120932F0120912F013091300182173C
:10044000930734F4215030403093300120932F0132
:1004500020912F0130913001809131019091320132
:1004600028173907A1F487EB91E060E071E00E9462
:100470009B0360912F017091300187EB91E00E9406
:10048000790480912F01909130010E94AB018091FD
:100490002F019091300190933201809331010895A2
:1004A0008CE061E00E94510587EB91E040E855E265
:1004B00060E070E00E94B10260910B0170910C014C
:1004C00040910D0150910E0120910F0130911001CA
:1004D00087E291E00E94DB0008950E9417050E94C8
:1004E00050020E94ED01FDCF1F920F920FB60F92A6
:1004F00011242F933F934F935F936F937F938F9329
:100500009F93AF93BF93EF93FF934091C600E09109
:10051000B301F091B401CF01019660E870E00E9450
:100520002C069C018091B5019091B60128173907DE
:1005300039F0ED5CFE4F40833093B4012093B3015A
:10054000FF91EF91BF91AF919F918F917F916F91AB
:100550005F914F913F912F910F900FBE0F901F9081
:100560001895AF92BF92CF92DF92EF92FF920F93C6
:100570001F93CF93DF936C017A018B01DC011496FA
:10058000AD90BC901597CB01BA0122E030E040E07D
:1005900050E00E946106205C3D4B404F5F4FCA0116
:1005A000B901A80197010E946106C901DA0101970A
:1005B000A109B109292F3A2F4B2F552747FD5A95ED
:1005C0000196A11DB11DE5012883E601EE81FF81A1
:1005D00081508083EA85FB85208141E050E0CA019B
:1005E0000E8402C0880F991F0A94E2F7282B2083FB
:1005F000EA85FB852081CA010F8402C0880F991FFC
:100600000A94E2F7282B2083EA85FB8580810888FD
:1006100002C0440F551F0A94E2F7842B8083DF91B8
:10062000CF911F910F91FF90EF90DF90CF90BF90EF
:10063000AF900895FC01A085B18521898C9190E04F
:10064000022E02C0959587950A94E2F780FFF6CFB7
:100650000484F585E02D6083089585E191E0909311
:10066000B8018093B70183E391E09093BA0180933E
:10067000B90185EC90E09093BC018093BB0184ECC0
:1006800090E09093BE018093BD0180EC90E0909348
:10069000C0018093BF0181EC90E09093C2018093F0
:1006A000C10186EC90E09093C4018093C30184E083
:1006B0008093C50183E08093C60187E08093C701E2
:1006C00085E08093C80108950F931F93CF93DF9324
:1006D0008C01EB0109C02196D801ED91FC910190AC
:1006E000F081E02DC801099568816623A1F7DF91AB
:1006F000CF911F910F910895EF92FF920F931F9347
:10070000CF93DF938C017B01EA010CC0D7016D917F
:100710007D01D801ED91FC910190F081E02DC8019F
:1007200009952197209791F7DF91CF911F910F9114
:10073000FF90EF900895DC01ED91FC910280F38130
:10074000E02D099508950F931F938C01DC01ED9125
:10075000FC910190F081E02D6DE00995D801ED91BB
:10076000FC910190F081E02DC8016AE009951F918C
:100770000F9108952F923F924F925F926F927F92C6
:100780008F929F92AF92BF92CF92DF92EF92FF92A1
:100790000F931F93DF93CF93CDB7DEB7A0970FB61C
:1007A000F894DEBF0FBECDBF1C016A017B0141156D
:1007B00051056105710549F4DC01ED91FC91019051
:1007C000F081E02D60E3099554C0882499245401F8
:1007D000422E55246624772401E010E00C0F1D1FE3
:1007E000080D191DC701B601A30192010E943F0621
:1007F000F80160830894811C911CA11CB11CC701E5
:10080000B601A30192010E943F06C901DA016C0101
:100810007D01C114D104E104F104F1F681E0E82E78
:10082000F12CEC0EFD1EE80CF91C3E010894611C35
:10083000711CD501C4010197A109B1096C01C81847
:10084000D90814C0F601EE0DFF1D60816A3010F466
:10085000605D01C0695CD101ED91FC910190F08176
:10086000E02DC10109950894E108F1086E147F0498
:1008700049F7A0960FB6F894DEBF0FBECDBFCF915B
:10088000DF911F910F91FF90EF90DF90CF90BF907D
:10089000AF909F908F907F906F905F904F903F9020
:1008A0002F900895EF92FF920F931F93CF93DF93B2
:1008B000EC017A018B0177FF0FC0E881F98101908B
:1008C000F081E02D6DE2099510950095F094E0948B
:1008D000E11CF11C011D111DCE01B801A7012AE088
:1008E0000E94BA03DF91CF911F910F91FF90EF907B
:1008F00008950F931F938C01AB01662757FD6095F8
:10090000762F0E945204C8010E94A3031F910F91E9
:1009100008951F920F920FB60F9211242F933F93B9
:100920008F939F93AF93BF938091CD019091CE0110
:10093000A091CF01B091D0013091D1010196A11DBC
:10094000B11D232F2D5F2D3720F02D570196A11DAE
:10095000B11D2093D1018093CD019093CE01A0933E
:10096000CF01B093D0018091C9019091CA01A091AB
:10097000CB01B091CC010196A11DB11D8093C9019D
:100980009093CA01A093CB01B093CC01BF91AF91DA
:100990009F918F913F912F910F900FBE0F901F90BD
:1009A00018958FB7F8942091CD013091CE014091E8
:1009B000CF015091D0018FBFB901CA010895EF92C4
:1009C000FF920F931F937B018C018FB7F894409196
:1009D000CD015091CE016091CF017091D0018FBFB8
:1009E0002FB7F8948091CD019091CE01A091CF01C5
:1009F000B091D0012FBF841B950BA60BB70BE81647
:100A0000F9060A071B0760F71F910F91FF90EF90FF
:100A10000895019759F0FC01EE0FFF1FEE0FFF1F25
:100A200032978FB7F8943197F1F78FBF0895789484
:100A300084B5826084BD84B5816084BD85B58260E3
:100A400085BD85B5816085BDEEE6F0E08081816081
:100A50008083E1E8F0E08081826080838081816032
:100A60008083E0E8F0E0808181608083E1EBF0E06A
:100A7000808184608083E0EBF0E08081816080830E
:100A8000EAE7F0E0808184608083808182608083F7
:100A90008081816080838081806880831092C10022
:100AA0000895282F30E0C90186569F4FFC0194918C
:100AB0002A573F4FF9018491882391F0E82FF0E005
:100AC000EE0FFF1FE859FF4FA591B491662329F45B
:100AD0008C91909589238C9308958C91892B8C937C
:100AE0000895482F50E0CA0182559F4FFC01249180
:100AF000CA0186569F4FFC0194914A575F4FFA01F5
:100B000034913323D1F1222331F1233021F4809128
:100B100080008F7705C0243031F4809180008F7D74
:100B20008093800018C0213019F484B58F7704C0F9
:100B3000223021F484B58F7D84BD0DC0263021F490
:100B40008091B0008F7705C0273029F48091B000E4
:100B50008F7D8093B000E32FF0E0EE0FFF1FEE5883
:100B6000FF4FA591B491662329F48C919095892328
:100B70008C9308958C91892B8C930895682F70E045
:100B8000CB0182559F4FFC012491CB0186569F4F8C
:100B9000FC0144916A577F4FFB019491992319F40A
:100BA00020E030E038C0222331F1233021F480915D
:100BB00080008F7705C0243031F4809180008F7DD4
:100BC0008093800018C0213019F484B58F7704C059
:100BD000223021F484B58F7D84BD0DC0263021F4F0
:100BE0008091B0008F7705C0273029F48091B00044
:100BF0008F7D8093B000892F90E0880F991F8458D3
:100C00009F4FFC01A591B4918C9120E030E08423AA
:100C100011F021E030E0C9010895629FD001739F77
:100C2000F001829FE00DF11D649FE00DF11D929F88
:100C3000F00D839FF00D749FF00D659FF00D9927C7
:100C4000729FB00DE11DF91F639FB00DE11DF91FEB
:100C5000BD01CF011124089597FB092E07260AD064
:100C600077FD04D049D006D000201AF47095619524
:100C70007F4F0895F6F7909581959F4F0895A1E2D3
:100C80001A2EAA1BBB1BFD010DC0AA1FBB1FEE1F06
:100C9000FF1FA217B307E407F50720F0A21BB30B51
:100CA000E40BF50B661F771F881F991F1A9469F7CD
:100CB00060957095809590959B01AC01BD01CF0129
:100CC000089597FB092E05260ED057FD04D0D7DFD7
:100CD0000AD0001C38F450954095309521953F4F2F
:100CE0004F4F5F4F0895F6F79095809570956195F9
:100CF0007F4F8F4F9F4F0895AA1BBB1B51E107C029
:100D0000AA1FBB1FA617B70710F0A61BB70B881F9B
:100D1000991F5A95A9F780959095BC01CD0108952A
:100D2000EE0FFF1F0590F491E02D0994F894FFCF8A
:100D3000676F696E6720746F3A2000050003000436
:0C0D400000000000001A0364037C0300A4
:00000001FF
