:100000000C9463000C948B000C948B000C948B006C
:100010000C948B000C948B000C948B000C948B0034
:100020000C948B000C948B000C948B000C948B0024
:100030000C948B000C948B000C948B000C948B0014
:100040000C9486040C948B000C946E020C948B0020
:100050000C948B000C948B000C948B000C948B00F4
:100060000C948B000C948B000000000024002700EF
:100070002A0000000000250028002B0000000000DE
:1000800023002600290004040404040404040202DA
:100090000202020203030303030301020408102007
:1000A0004080010204081020010204081020000012
:1000B0000007000201000003040600000000000029
:1000C00000009E01270311241FBECFEFD4E0DEBF46
:1000D000CDBF11E0A0E0B1E0EAE2FDE002C0059092
:1000E0000D92A231B107D9F711E0A2E1B1E001C050
:1000F0001D92A83CB107E1F710E0C6ECD0E004C0C7
:100100002297FE010E948F06C23CD107C9F70E94C8
:1001100067020C9493060C9400000F931F938C01BC
:10012000FC0145835683678370870E94CE04F801E3
:1001300061837283838394831F910F910895EF925B
:10014000FF920F931F93CF93DF93EC010E94CE0495
:10015000E980FA800B811C812D813E814F81588579
:100160006E197F09800B910B62177307840795073F
:1001700010F480E018C0211531054105510519F032
:100180008881882339F00E94CE0469837A838B8327
:100190009C8308C02E0D3F1D401F511F29833A83A9
:1001A0004B835C8381E0DF91CF911F910F91FF9092
:1001B000EF90089508950F931F938C01862FF801F7
:1001C00062837383518340833583248361E00E947B
:1001D0004E05F801808161E00E944E05F80184819E
:1001E00061E00E944E051F910F910895DF92EF92FA
:1001F000FF920F931F93CF93DF93EC01162FDD2413
:10020000EE24FF24888161E00E946E05DD0C8C8164
:1002100060E00E944E058C8161E00E946E058C8139
:100220000E94BB05019711F481E0D82A8C8160E01F
:100230000E946E058C8161E00E944E05012F10E046
:1002400000FF03C08C8161E002C08C8160E00E94ED
:100250006E05888160E00E946E058C8160E00E94DE
:100260006E050894E11CF11C88E0E816F10421F009
:1002700015950795102FC6CF8D2DDF91CF911F912A
:100280000F91FF90EF90DF900895EF92FF920F9300
:100290001F93CF93DF937C01FC01828160E00E9479
:1002A0006E05C70165E50E94F600C7016FEF0E9469
:1002B000F600C7016FEF0E94F600182F00E0C7019B
:1002C0006FEF0E94F600B801680F711DCB018370BB
:1002D00090708230910561F464FD03C0CFEFDFEFD1
:1002E00002C0CEEFDFEF65FF1CC0CDEFDFEF19C01E
:1002F000019719F0CFEFDFEF14C0769567957695EB
:10030000679580E090E020E13EE040E050E00E9410
:100310000A062EE095958795779567952A95D1F7EA
:10032000EB01F701828161E00E946E05CE01DF9151
:10033000CF911F910F91FF90EF90089584E191E08C
:1003400048E250E060E070E00E948D008DE191E0B5
:100350000E94DA000895EF92FF920F931F939C0181
:1003600081E02836380714F027E631E087E691E08F
:10037000821B930B25E530E0829FB001839F700DB7
:10038000929F700D1124882777FD8095982F24E681
:1003900030E040E050E00E945E0679018A018CE086
:1003A00061E00E946E058CED95E0A0E0B0E0E80E03
:1003B000F91E0A1F1B1FC7010E9406058CE060E0A2
:1003C0000E946E056AE070E080E090E00E94DC042C
:1003D0001F910F91FF90EF90089584E191E00E94AA
:1003E0009F00813099F48DE191E00E944501BC01AC
:1003F00090931301809312018DEA91E00E947E0494
:100400008DEA91E060E071E00E94B40364E070E086
:1004100080E090E00E94DC04809112019091130131
:100420006AE070E00E942906CB017093240160937A
:10043000230120912501309126012617370734F436
:100440002F5F3F4F309326012093250120912501F6
:10045000309126018217930734F4215030403093B5
:1004600026012093250120912501309126018091BC
:100470002701909128012817390719F4C9010E9412
:10048000AB018091250190912601909328018093E2
:10049000270108958CE061E00E944E058DEA91E00D
:1004A00040E855E260E070E00E94AB02609101011B
:1004B00070910201409103015091040120910501C6
:1004C000309106018DE191E00E94DB0008950E94C9
:1004D00014050E944A020E94ED01FDCF1F920F9267
:1004E0000FB60F9211242F933F934F935F936F9307
:1004F0007F938F939F93AF93BF93EF93FF9340911D
:10050000C600E091A901F091AA01CF01019660E82F
:1005100070E00E9429069C018091AB019091AC0192
:100520002817390739F0E75DFE4F40833093AA0161
:100530002093A901FF91EF91BF91AF919F918F916E
:100540007F916F915F914F913F912F910F900FBECF
:100550000F901F901895AF92BF92CF92DF92EF92BB
:10056000FF920F931F93CF93DF936C017A018B015E
:10057000DC011496AD90BC901597CB01BA0122E036
:1005800030E040E050E00E945E06205C3D4B404F72
:100590005F4FCA01B901A80197010E945E06C90117
:1005A000DA010197A109B109292F3A2F4B2F5527BD
:1005B00047FD5A950196A11DB11DE5012883E6016D
:1005C000EE81FF8181508083EA85FB85208141E0B7
:1005D00050E0CA010E8402C0880F991F0A94E2F706
:1005E000282B2083EA85FB852081CA010F8402C065
:1005F000880F991F0A94E2F7282B2083EA85FB8550
:100600008081088802C0440F551F0A94E2F7842BAA
:100610008083DF91CF911F910F91FF90EF90DF903A
:10062000CF90BF90AF900895FC01A085B18521893E
:100630008C9190E0022E02C0959587950A94E2F77E
:1006400080FFF6CF0484F585E02D608308958BE06C
:1006500091E09093AE018093AD0189E291E0909397
:10066000B0018093AF0185EC90E09093B20180934C
:10067000B10184EC90E09093B4018093B30180ECDD
:1006800090E09093B6018093B50181EC90E0909357
:10069000B8018093B70186EC90E09093BA01809303
:1006A000B90184E08093BB0183E08093BC0187E0C3
:1006B0008093BD0185E08093BE0108950F931F9341
:1006C000CF93DF938C01EB0109C02196D801ED9106
:1006D000FC910190F081E02DC801099568816623A5
:1006E000A1F7DF91CF911F910F910895EF92FF92A3
:1006F0000F931F93CF93DF938C017B01EA010CC012
:10070000D7016D917D01D801ED91FC910190F081AF
:10071000E02DC80109952197209791F7DF91CF919E
:100720001F910F91FF90EF900895DC01ED91FC91E6
:100730000280F381E02D099508950F931F938C019A
:10074000DC01ED91FC910190F081E02D6DE00995C7
:10075000D801ED91FC910190F081E02DC8016AE093
:1007600009951F910F9108950F931F938C010E947B
:100770009503C8010E949D031F910F9108952F9228
:100780003F924F925F926F927F928F929F92AF9221
:10079000BF92CF92DF92EF92FF920F931F93DF935E
:1007A000CF93CDB7DEB7A0970FB6F894DEBF0FBEDC
:1007B000CDBF1C016A017B01411551056105710521
:1007C00049F4DC01ED91FC910190F081E02D60E3B2
:1007D000099554C0882499245401422E5524662436
:1007E000772401E010E00C0F1D1F080D191DC70133
:1007F000B601A30192010E943C06F80160830894AF
:10080000811C911CA11CB11CC701B601A30192015E
:100810000E943C06C901DA016C017D01C114D104BA
:10082000E104F104F1F681E0E82EF12CEC0EFD1E5E
:10083000E80CF91C3E010894611C711CD501C4012F
:100840000197A109B1096C01C818D90814C0F601B3
:10085000EE0DFF1D60816A3010F4605D01C0695CBF
:10086000D101ED91FC910190F081E02DC10109953C
:100870000894E108F1086E147F0449F7A0960FB6BA
:10088000F894DEBF0FBECDBFCF91DF911F910F91C6
:10089000FF90EF90DF90CF90BF90AF909F908F90A0
:1008A0007F906F905F904F903F902F900895EF92C0
:1008B000FF920F931F93CF93DF93EC017A018B018B
:1008C00077FF0FC0E881F9810190F081E02D6DE2A2
:1008D000099510950095F094E094E11CF11C011D20
:1008E000111DCE01B801A7012AE00E94BF03DF91CC
:1008F000CF911F910F91FF90EF900895AB01662764
:1009000057FD6095762F0E94570408951F920F920D
:100910000FB60F9211242F933F938F939F93AF9312
:10092000BF938091C3019091C401A091C501B09182
:10093000C6013091C7010196A11DB11D232F2D5F66
:100940002D3720F02D570196A11DB11D2093C70111
:100950008093C3019093C401A093C501B093C601D5
:100960008091BF019091C001A091C101B091C201DD
:100970000196A11DB11D8093BF019093C001A0936A
:10098000C101B093C201BF91AF919F918F913F91EF
:100990002F910F900FBE0F901F9018958FB7F8945E
:1009A0002091C3013091C4014091C5015091C6010D
:1009B0008FBFB901CA010895EF92FF920F931F9361
:1009C0007B018C018FB7F8944091C3015091C40111
:1009D0006091C5017091C6018FBF2FB7F8948091C7
:1009E000C3019091C401A091C501B091C6012FBF70
:1009F000841B950BA60BB70BE816F9060A071B0715
:100A000060F71F910F91FF90EF900895019759F0B3
:100A1000FC01EE0FFF1FEE0FFF1F32978FB7F89408
:100A20003197F1F78FBF0895789484B5826084BDC3
:100A300084B5816084BD85B5826085BD85B58160E2
:100A400085BDEEE6F0E0808181608083E1E8F0E042
:100A5000808182608083808181608083E0E8F0E033
:100A6000808181608083E1EBF0E08081846080831D
:100A7000E0EBF0E0808181608083EAE7F0E0808154
:100A800084608083808182608083808181608083B4
:100A90008081806880831092C1000895282F30E003
:100AA000C90186569F4FFC0194912A573F4FF90187
:100AB0008491882391F0E82FF0E0EE0FFF1FE859B2
:100AC000FF4FA591B491662329F48C9190958923C9
:100AD0008C9308958C91892B8C930895482F50E026
:100AE000CA0182559F4FFC012491CA0186569F4F2F
:100AF000FC0194914A575F4FFA0134913323D1F1AD
:100B0000222331F1233021F4809180008F7705C0BA
:100B1000243031F4809180008F7D8093800018C054
:100B2000213019F484B58F7704C0223021F484B5C4
:100B30008F7D84BD0DC0263021F48091B0008F7769
:100B400005C0273029F48091B0008F7D8093B000DC
:100B5000E32FF0E0EE0FFF1FEE58FF4FA591B49189
:100B6000662329F48C91909589238C9308958C9118
:100B7000892B8C930895682F70E0CB0182559F4F8D
:100B8000FC012491CB0186569F4FFC0144916A578A
:100B90007F4FFB019491992319F420E030E038C095
:100BA000222331F1233021F4809180008F7705C01A
:100BB000243031F4809180008F7D8093800018C0B4
:100BC000213019F484B58F7704C0223021F484B524
:100BD0008F7D84BD0DC0263021F48091B0008F77C9
:100BE00005C0273029F48091B0008F7D8093B0003C
:100BF000892F90E0880F991F84589F4FFC01A59181
:100C0000B4918C9120E030E0842311F021E030E0B9
:100C1000C9010895629FD001739FF001829FE00D8A
:100C2000F11D649FE00DF11D929FF00D839FF00D6B
:100C3000749FF00D659FF00D9927729FB00DE11D17
:100C4000F91F639FB00DE11DF91FBD01CF011124F4
:100C5000089597FB092E07260AD077FD04D049D0C6
:100C600006D000201AF4709561957F4F0895F6F72D
:100C7000909581959F4F0895A1E21A2EAA1BBB1B48
:100C8000FD010DC0AA1FBB1FEE1FFF1FA217B30758
:100C9000E407F50720F0A21BB30BE40BF50B661F6E
:100CA000771F881F991F1A9469F760957095809532
:100CB00090959B01AC01BD01CF01089597FB092ED2
:100CC00005260ED057FD04D0D7DF0AD0001C38F41B
:100CD00050954095309521953F4F4F4F5F4F089568
:100CE000F6F790958095709561957F4F8F4F9F4F48
:100CF0000895AA1BBB1B51E107C0AA1FBB1FA61763
:100D0000B70710F0A61BB70B881F991F5A95A9F7B4
:100D100080959095BC01CD010895EE0FFF1F0590C1
:0A0D2000F491E02D0994F894FFCF40
:100D2A00000500030004000000000014035E0376BF
:020D3A000300B4
:00000001FF
